:020000040800F2
:100000000005002001010008511B0008B919000873
:100010004D1B000899010008852000080000000021
:10002000000000000000000000000000811B00082C
:10003000B903000800000000551B0008831B0008DE
:100040001B0100081B0100081B0100081B01000820
:100050001B0100081B0100081B0100081B01000810
:100060001B0100081B0100081B0100081B01000800
:100070001B0100081B0100081B0100081B010008F0
:100080001B0100081B0100081B0100081B010008E0
:100090001B0100081B0100081B0100081B010008D0
:1000A0001B0100081B0100081B0100081B010008C0
:1000B0001B0100081B0100081B0100081B010008B0
:1000C0001B0100081B0100081B0100081B010008A0
:1000D0001B0100081B010008752000081B01000817
:1000E0001B0100081B0100081B010008DFF80CD0F1
:1000F00000F040F8004800478D230008000500206C
:100100000648804706480047FEE7FEE7FEE7FEE7B1
:10011000FEE7FEE7FEE7FEE7FEE7FEE7F11B00086D
:10012000ED000008D2B201E000F8012B491EFBD21D
:1001300070470022F6E710B513460A4604461946F2
:10014000FFF7F0FF204610BD30B50B4601460020FA
:100150002022012409E021FA02F59D4205D303FA89
:1001600002F5491B04FA02F52844151EA2F101020A
:10017000F1DC30BD064C074D06E0E06840F00103BD
:1001800094E8070098471034AC42F6D3FFF7B2FF6B
:10019000A4240008C424000800BFFEE71FB5002007
:1001A00000900190029003900120009001900220A5
:1001B000039069462F4800F0C5F9012211462D48E9
:1001C00000F058FB0A2000F0F9F80022012129482C
:1001D00000F050FB142000F0F1F8012211462548F0
:1001E00000F048FB1E2000F003F900200090019071
:1001F0000290039001200090002001900290694637
:100200001C4800F09FF9002409E0601CC4B20120E2
:1002100000F0EEF8642C02DD012004B010BD0121D5
:10022000144800F01FFB0128EFD0002408E0601CF8
:10023000C4B2012000F0DCF8642C01DD0120ECE701
:1002400001210C4800F00EFB0028F0D0002408E04B
:10025000601CC4B2012000F0CBF8642C01DD012049
:10026000DBE70121034800F0FDFA0128F0D000206F
:10027000D3E700000008014070B5002400251CE011
:1002800000BF01210F4800F0EDFA0028F9D0282026
:1002900000F0AEF86006040E01210A4800F0E2FA10
:1002A000012801D144F0010400BF0121054800F0FC
:1002B000D9FA0128F9D0681CC5B2082DE0DB204628
:1002C00070BD0000000801401FB5044600200090EA
:1002D0000190029003900120009001900220039071
:1002E0006946344800F02EF900220121314800F01F
:1002F000C1FA142000F062F8012211462D4800F0E6
:10030000B9FA1E2000F074F80020009001900290CD
:10031000039001200090002001900290694625483A
:1003200000F010F90121234800F09CFA00283ED18A
:1003300000BF01211F4800F095FA0028F9D000BF46
:1003400001211C4800F08EFA0128F9D0FFF794FF34
:100350002070FFF791FF6070FFF78EFFA070FFF72E
:100360008BFFE070FFF788FF207100200090019064
:1003700002900390012000900190022003906946B2
:100380000C4800F0DFF8012211460A4800F072FA2A
:10039000207861780844A1780844E17808442179FC
:1003A000884202D1002004B010BD0120FBE70120EB
:1003B000F9E70000000801407047704770B5044637
:1003C000002505E04FF47A7000F012F8681C85B241
:1003D000A542F7DB70BD70B50446002505E04FF47B
:1003E0007A70FFF7EBFF681C85B2A542F7DB70BDA2
:1003F00010B504460020084909684862064800F024
:1004000013FF00BF04480068406AA042FAD30248C4
:1004100000F040FF10BD00001C0000200448002137
:10042000016041600181002002490880704700009E
:10043000F40000201200002072B600BFFEE7014663
:10044000002291F82100022808D00420886300BF10
:10045000002081F8200000BF012070470868006874
:1004600020F00E000B6818600868006820F001009A
:100470000B68186091F8403001209840CB6B5860B1
:10048000012081F8210000BF002081F8200000BF7A
:100490001046E2E770B50446002594F821000228D2
:1004A00003D00420A063012548E02068006820F004
:1004B0000E00216808602068006820F001002168B3
:1004C00008601F492068884201D1012026E01C49AC
:1004D00014312068884201D110201FE018492831CA
:1004E0002068884201D1801518E015493C31206808
:1004F000884201D1801411E01149503120688842AE
:1005000002D14FF4803009E00D49643120688842FF
:1005100002D14FF4801001E04FF080700849083993
:100520004860012084F8210000BF002084F82000EA
:1005300000BF606B10B12046616B8847284670BDD4
:10054000080002402DE9F8470346002294466EE178
:100550004FF0010808FA02F4D1F8008008EA04001C
:10056000A0427DD1DFF8DCA2D1F80480A8EB0A0913
:10057000D0453AD014DCB8F1030F50D009DCB8F103
:10058000000F31D0B8F1010F1CD0B8F1020F49D1E2
:1005900020E0B8F1110F18D0B8F1120F42D11EE0CF
:1005A000B9F5881F25D006DCB9F5803F20D0B9F514
:1005B000801F37D11AE0B9F5001F18D0B9F5041F14
:1005C00030D117E0D1F80CC02DE0D1F80C8008F143
:1005D000040C28E0D1F80C8008F1080C23E0D1F8D5
:1005E0000C8008F10C0C1EE000BF00BF00BF00BF74
:1005F00000BF00BFD1F80880B8F1000F02D14FF062
:10060000040C0BE0D1F80880B8F1010F03D14FF0D2
:10061000080C1C6102E04FF0080C5C6103E04FF035
:10062000000C00E000BF00BFFF2801D8984601E0A1
:1006300003F104084646FF2802D84FEA820803E087
:10064000A2F108084FEA88084746D6F800804FF024
:100650000F0909FA07F928EA09080CFA07F900E076
:1006600088E048EA0908C6F80080D1F8048008F05C
:100670008058B8F1805F7DD100BFDFF8CC81D8F819
:10068000188048F00108DFF8C091C9F81880C84602
:10069000D8F8188008F00108CDF8008000BF00BF2E
:1006A0004FEAB9384FEA920958F829504FEA827850
:1006B0004FEA18794FF00F0808FA09F825EA0805FB
:1006C000DFF88881434502D14FF0000816E0DFF8DB
:1006D0008081434502D14FF001080FE0DFF87481BB
:1006E000434502D14FF0020808E0DFF86C81434532
:1006F00002D14FF0030801E04FF004084FEA82797D
:100700004FEA197908FA09F848EA0505DFF84C813B
:100710004FEA920948F82950D1F8048008F480186B
:10072000B8F5801F0AD1DFF83881D8F8008048EA90
:100730000008DFF82C91C9F8008009E0DFF820817B
:10074000D8F8008028EA0008DFF81491C9F8008082
:10075000D1F8048008F40018B8F5001F10D1DFF8B4
:10076000008108F10408D8F8008048EA0008DFF8A2
:10077000F09000E05AE009F10409C9F800800DE0AA
:10078000DFF8DC8008F10408D8F8008028EA0008C7
:10079000DFF8CC9009F10409C9F80080D1F8048091
:1007A00008F40038B8F5003F0ED1DFF8B480A8F1A6
:1007B0000408D8F8008048EA0008DFF8A490A9F1FE
:1007C0000409C9F800800DE0DFF89480A8F104085E
:1007D000D8F8008028EA0008DFF88490A9F104091D
:1007E000C9F80080D1F8048008F48038B8F5803F5B
:1007F0000ED1DFF86C80A8F10808D8F8008048EA2C
:100800000008DFF85C90A9F10809C9F800800DE044
:10081000DFF84C80A8F10808D8F8008028EA000822
:10082000DFF83C90A9F10809C9F80080521CD1F802
:10083000008028FA02F8B8F1000F7FF489AEBDE815
:10084000F88700000000111000100240000801406D
:10085000000C01400010014000140140080001405C
:1008600008040140024693680B400BB1012000E0F0
:10087000002070470AB1016101E00B040361704779
:10088000014800687047000000000020034800682D
:1008900003490978084401490860704700000020B6
:1008A0000800002010B50848006840F01000064914
:1008B0000860032000F0A8F80F2000F007F800F00F
:1008C0002BF8002010BD00000020024070B5044647
:1008D0000E4800784FF47A71B1FBF0F00C490968CA
:1008E000B1FBF0F5284600F0F9FB08B1012070BD1E
:1008F000102C07D200222146501E00F047F8054870
:10090000046001E00120F2E70020F0E70800002089
:100910000C0000200400002008B500BF11488069C9
:1009200040F001000F4988610846806900F001002D
:10093000009000BF00BF00BF0846C06940F0805073
:10094000C8610846C06900F08050009000BF00BF39
:1009500000BF0549486820F0E06040F00070486042
:1009600000BF08BD001002400000014001460846DB
:10097000002809DB00F01F0301229A4043099B0075
:1009800003F1E023C3F8002100BF70472DE9F05FB9
:1009900080460D461646002701F086FB074639467D
:1009A0002A46334601F00700C0F1070ABAF1040FE6
:1009B00002D94FF0040A01E0C0F1070AD14600F164
:1009C000040ABAF1070F02D24FF0000A01E0A0F1C9
:1009D000030AD4464FF0010A0AFA09FAAAF1010AF9
:1009E0000AEA020A0AFA0CFA4FF0010B0BFA0CFBA6
:1009F000ABF1010B0BEA030B4AEA0B04214640461C
:100A000001F05AFBBDE8F09F00BF00F00702064B63
:100A100019684FF6FF031940044B0B4343EA0221C8
:100A2000014B196000BF70470CED00E00000FA05B3
:100A300070B504460D460CB9012070BD5A480068D7
:100A400000F00700A8420ED25748006820F00700C7
:100A50002843554908600846006800F00700A8428E
:100A600001D00120E9E7207800F0020002281DD122
:100A7000207800F00400042805D14C48406840F478
:100A8000E0604A494860207800F00800082805D155
:100A90004648406840F460504449486043484068D4
:100AA00020F0F000A168084340494860207800F039
:100AB000010078B36068012806D13C48006800F462
:100AC000003090B90120B8E76068022806D13748A5
:100AD000006800F0007040B90120AEE733480068BC
:100AE00000F0020008B90120A7E73048406820F074
:100AF0000300616808432D494860FFF7C1FE0646C0
:100B000009E0FFF7BDFE801B41F28831884202D91F
:100B1000032092E707E02548406800F00C00616878
:100B2000B0EB810FEDD12048006800F00700A8422B
:100B30000ED91D48006820F0070028431A490860B4
:100B40000846006800F00700A84201D0012074E7C1
:100B5000207800F00400042807D11448406820F4ED
:100B6000E060E168084311494860207800F008001F
:100B7000082808D10D48406820F46050216940EAF7
:100B8000C1000A49486000F03FF808494968C1F3CC
:100B90000311074A515CC8400649086006480068CE
:100BA000FFF794FE002048E70020024000100240BA
:100BB0008A2400080C00002004000020014800687E
:100BC000704700000C00002000B5FFF7F7FF044954
:100BD0004968C1F30221034A515CC84000BD0000CE
:100BE000001002409A24000800B5FFF7E7FF04490F
:100BF0004968C1F3C221034A515CC84000BD0000EE
:100C0000001002409A24000870B500210022002440
:100C100000230020134D696801F00C05F5B1042D87
:100C200002D0082D19D101E00F4819E00F4DC1F392
:100C30008346AB5D01F4803555B10A4D6D68C5F34F
:100C400040450B4E725D084D5D43B5FBF2F402E08A
:100C5000084D03FB05F4204602E000BF024800BF38
:100C600000BF70BD0010024000127A007824000816
:100C70008824000800093D00F8B504460CB901209D
:100C8000F8BD207800F00100002878D0F8484068CE
:100C900000F00C0004280CD0F548406800F00C006F
:100CA000082811D1F248406800F48030B0F5803F48
:100CB0000AD1EF48006800F4003000285FD0606877
:100CC00000285CD10120DBE700BF6068B0F5803F01
:100CD00006D1E748006840F48030E549086028E024
:100CE000606858B9E248006820F48030E049086044
:100CF0000846006820F4802008601AE06068B0F5BB
:100D0000A02F0BD1DA48006840F48020D849086051
:100D10000846006840F4803008600AE0D448006863
:100D200020F48030D24908600846006820F4802012
:100D3000086000BF606888B1FFF7A2FD054606E0C5
:100D4000FFF79EFD401B642801D9032098E7C8489F
:100D5000006800F400300028F2D010E0FFF790FDAA
:100D6000054606E0FFF78CFD401B642801D90320EF
:100D700086E7BF48006800F400300028F2D12078F0
:100D800000F00200022857D1B948406800F00C007A
:100D900050B1B748406800F00C00082818D1B4489A
:100DA000406800F4803098B9B148006800F0020053
:100DB00020B12069012801D0012061E7AC4800681A
:100DC00020F0F800616940EAC100A949086033E0F9
:100DD0002069E8B10120A7490860FFF751FD0546E9
:100DE00006E0FFF74DFD401B022801D9032047E72D
:100DF0009F48006800F002000028F2D09C4800687C
:100E000020F0F800616940EAC1009949086013E0E8
:100E1000002098490860FFF733FD054606E0FFF71C
:100E20002FFD401B022801D9032029E790480068C4
:100E300000F002000028F2D1207800F00800082815
:100E40002DD1A069B8B101208B490860FFF718FDCA
:100E5000054606E0FFF714FD401B022801D90320D8
:100E60000EE78348406A00F002000028F2D001201B
:100E700000F072FE13E000207F490860FFF700FDDC
:100E8000054606E0FFF7FCFC401B022801D90320C1
:100E9000F6E67748406A00F002000028F2D1207898
:100EA00000F00400042873D100277148C06900F0E5
:100EB000805070B900BF6E48C06940F080506C49E6
:100EC000C8610846C06900F08050009000BF00BFB4
:100ED00001276A48006800F48070B0B9674800686C
:100EE00040F4807065490860FFF7CAFC054606E0DB
:100EF000FFF7C6FC401B642801D90320C0E65F4809
:100F0000006800F480700028F2D000BFE06801287B
:100F100006D15748006A40F001005549086227E0B1
:100F2000E06858B95248006A20F001005049086250
:100F30000846006A20F00400086219E0E06805280D
:100F40000BD14B48006A40F004004949086208464A
:100F5000006A40F0010008620AE04548006A20F09B
:100F60000100434908620846006A20F00400086254
:100F700000BFE068A0B1FFF783FC054609E0FFF77A
:100F80007FFC401B41F28831884202D9032077E67A
:100F900022E03748006A00F002000028EFD012E09B
:100FA000FFF76EFC054608E0FFF76AFC401B41F2C4
:100FB0008831884201D9032062E62D48006A00F09A
:100FC00002000028F0D1012F05D12948C06920F086
:100FD00080502749C86100BFE069C8B32448406811
:100FE00000F00C00082860D0E069022848D10020F9
:100FF00020490866FFF744FC054606E0FFF740FC81
:10100000401B022801D903203AE61948006800F085
:1010100000700028F2D1206AB0F5803F07D1144853
:10102000406820F40030A168084311494860D4E9C1
:10103000080108430E49496821F4741108430C491A
:10104000486001200B490866FFF71AFC054607E0D7
:101050003DE0FFF715FC401B022801D903200FE6F5
:101060000348006800F000700028F2D02FE0000074
:1010700000100240000042428004424200700040E2
:10108000002014490866FFF7FBFB054606E0FFF762
:10109000F7FB401B022801D90320F1E50E48006848
:1010A00000F000700028F2D111E0E069012800D1C1
:1010B000E6E50948466806F48031206A814204D199
:1010C00006F47011606A814201D00120D8E5002049
:1010D000D6E50000000042420010024070B5044610
:1010E0002546681EB0F1807F01D301200FE0681E05
:1010F0004FF0E02148610F214FF0FF3000F0DCFF9E
:1011000000204FF0E021886107200861002070BDB9
:1011100030B502460B4600BF92F83C00012801D1D1
:10112000022030BD012082F83C0000BF022082F87E
:101130003D00106844681068816824F070041868E5
:10114000044310684460104D1068A8420BD010682A
:10115000B0F1804F07D00D4D1068A84203D00C4D60
:101160001068A84205D121F0800158680143106839
:101170008160012082F83D0000BF002082F83C0021
:1011800000BF00BFCDE70000002C0140000400407C
:101190000008004010B504460CB9012010BD94F8B9
:1011A0003D0028B9002084F83C00204600F026F8D5
:1011B000022084F83D00211D206800F01BFD012065
:1011C00084F8460000BF84F83E0001213F2001550D
:1011D000402001554120015500BF00BF012084F887
:1011E000420043200155442001554520015500BFD0
:1011F000012084F83D000020D0E7000008B5016818
:10120000B1F1804F0DD100BF0649C96941F001011C
:10121000044AD1611146C96901F00101009100BF82
:1012200000BF08BD00100240014691F83D000128B2
:1012300001D001207047022081F83D00124B086860
:1012400098420BD00868B0F1804F07D00F4B086868
:10125000984203D00E4B086898420CD10868806809
:1012600000F00702062A0CD00868006840F0010070
:101270000B68186005E00868006840F001000B6822
:1012800018600020D6E70000002C01400004004058
:1012900000080040014600BF0868006A41F21112D0
:1012A000104050B90868006A9210104028B90868C8
:1012B000006820F001000A68106000BF012081F87A
:1012C0003D00002070472DE9F04104460D460027FF
:1012D00000BF94F83C00012802D10220BDE8F08153
:1012E000012084F83C0000BF022084F83D00206803
:1012F000866826F0770626F47F4620688660286890
:10130000502833D00CDC202850D004DC00284BD0EF
:10131000102851D149E0302849D040284CD139E03B
:1013200060282DD0702807D0B0F5805F03D0B0F5CD
:10133000005F41D10DE041E0D5E902136A68206801
:1013400000F09AFC2068866846F077062068866080
:1013500034E0D5E902136A68206800F08DFC20684B
:10136000806840F480402168886027E0EA68696806
:10137000206800F095FC5021206800F088FC1DE0FA
:10138000EA686968206800F09EFC6021206800F02F
:101390007EFC13E0EA686968206800F081FC402167
:1013A000206800F074FC09E000BF00BF00BF29689E
:1013B000206800F06CFC01E0012700BF00BF0120A5
:1013C00084F83D0000BF002084F83C0000BF384690
:1013D00084E77047704700002DE9F84F0446206805
:1013E00005682068C668206847694FF00009CA464A
:1013F00005F00F09B9F1000F0AD105F0200038B14E
:1014000006F0200020B1204600F0C1FCBDE8F88FB6
:10141000B9F1000F7BD007F0010018B906F4907005
:10142000002874D005F0010030B106F4807018B1C6
:10143000606C40F00100606405F0040030B107F01A
:10144000010018B1606C40F00200606405F0020019
:1014500030B107F0010018B1606C40F00400606426
:1014600005F0080048B106F0200010B907F00100AF
:1014700018B1606C40F008006064606C002845D0D2
:1014800005F0200028B106F0200010B1204600F041
:101490007EFC20684069C0F3801A606C00F0080090
:1014A00010B9BAF1000F2CD0204600F02AFC2068B9
:1014B000406900F0400000B300BF00BF2168143154
:1014C00051E8001F21F040002168143141E800027A
:1014D000002AF3D100BFE06B50B17748E16B48635D
:1014E000E06BFEF7D7FF88B1E06B416B88470DE0FA
:1014F0002046FFF76FFF09E009E02046FFF76AFF8B
:1015000004E02046FFF766FF002060647EE7206B62
:10151000012877D105F01000002873D006F01000E4
:101520000028FAD000BF00200090206800680090DA
:1015300020684068009000BF00BF2068406900F04C
:10154000400000285FD0E06B006840681FFA80F818
:10155000B8F1000F55D0A08D404552DDA4F82E8083
:10156000E06B8069202843D000BF00BF21680C31A8
:1015700051E8001F21F4807021680C3141E800021D
:10158000002AF3D100BF00BF00BF2168143151E829
:10159000001F21F001002168143141E80002002AF7
:1015A000F3D100BF00BF00BF2168143151E8001F14
:1015B00021F040002168143141E80002002AF3D1F3
:1015C00000BF202084F842000020206300BF00BF3D
:1015D00021680C3151E8001F21F0100021680C3106
:1015E00041E80002002AF3D100BFE06BFEF727FFBD
:1015F00002206063A08DE28D801A81B22046FFF741
:10160000E8FE03E742E0A08DE18D401A1FFA80F862
:10161000E08DD0B3B8F1000F37D000BF00BF216814
:101620000C3151E8001F21F4907021680C3141E821
:101630000002002AF3D100BF00BF00BF21681431AF
:1016400051E8001F21F001002168143141E8000237
:10165000002AF3D100BF202084F84200002020633C
:1016600000BF00BF21680C3151E8001F21F01000BD
:1016700021680C3141E80002002AF3D100BF0220AA
:10168000606341462046FFF7A4FEBFE605F08000F8
:1016900030B106F0800018B1204600F075FCB5E6C8
:1016A00005F0400030B106F0400018B1204600F0CF
:1016B0005EFBABE600BFA9E6EF1C000810B50446D0
:1016C0000CB9012010BDA06900B100E000BF94F882
:1016D000410028B9002084F84000204600F02AF894
:1016E000242084F841002068C06820F4005021685C
:1016F000C860204600F0CAFB2068006920F49040D2
:10170000216808612068406920F02A00216848614A
:101710002068C06840F400502168C8600020606400
:10172000202084F8410084F842000020606300BF5C
:10173000C8E7000010B586B0044600200290039070
:10174000049005903749206888422FD100BF364861
:10175000806940F48040344988610846806900F41B
:101760008040019000BF00BF00BF0846806940F084
:10177000040088610846806900F00400019000BF01
:1017800000BF48150290022003900320059002A993
:101790002648FEF7D7FE4FF48060029000200390A9
:1017A000049002A92148FEF7CDFE39E020492068C7
:1017B000884235D100BF1C48C06940F400301A4946
:1017C000C8610846C06900F40030019000BF00BF46
:1017D00000BF0846806940F00400886108468069BF
:1017E00000F00400019000BF00BF0420029002201E
:1017F00003900320059002A90C48FEF7A3FE0820E1
:10180000029000200390049002A90848FEF79AFE77
:10181000002211462620FFF7B9F82620FFF7A6F888
:1018200006B010BD00380140001002400008014021
:10183000004400402DE9F84F04460E4617469946ED
:101840004FF0000A94F84200202852D106B117B98F
:101850000120BDE8F88F00206064222084F8420057
:1018600000202063FFF70CF88246A785E785A06873
:10187000B0F5805F04D1206910B90025B04602E0C0
:1018800035464FF000082CE0534600222021204628
:10189000CDF8009000F0A8FB20B1202084F8420091
:1018A0000320D6E745B920684068C0F30800A8F8CF
:1018B000000008F1020811E0A068B0F5805F03D0D5
:1018C000A06828B9206918B920684068287004E029
:1018D0002068406800F07F0028706D1CE08D401E7D
:1018E000E085E08D0028CFD1202084F84200002040
:1018F000AFE70220ADE770472DE9F84F04460E46EA
:10190000174699464FF0000A94F84100202850D11C
:1019100006B117B90120BDE8F88F002060642120CE
:1019200084F84100FEF7ACFF8246A784E784A068F4
:10193000B0F5805F04D1206910B90025B04602E0FF
:1019400035464FF000081EE0534600228021204615
:10195000CDF8009000F048FB20B1202084F8410031
:101960000320D8E745B9B8F80000C0F308002168A3
:10197000486008F1020803E02878216848606D1C7F
:10198000E08C401EE084E08C0028DDD1534600222C
:1019900040212046CDF8009000F026FB20B1202009
:1019A00084F841000320B6E7202084F8410000209D
:1019B000B1E70220AFE7704700BFFEE700B585B092
:1019C0000020019002900390049000BF2548806998
:1019D00040F01000234988610846806900F010003B
:1019E000009000BF00BF00BF0846806940F02000A3
:1019F00088610846806900F02000009000BF00BFA9
:101A000000BF0846806940F004008861084680698C
:101A100000F00400009000BF00BF00224FF400510E
:101A20001148FEF727FF012211461048FEF722FF5A
:101A30004FF40050019001200290002003900220FA
:101A4000049001A90848FEF77DFD01200190029055
:101A5000002003900320049001A90448FEF772FDC2
:101A600005B000BD00100240001001400008014018
:101A700000B587B000200390049005900690019077
:101A800002904FF0804014490860472048600021D0
:101A9000114881604FF6FF71C160002101618161D1
:101AA000FFF778FB08B1FEF7C7FC4FF480500390B6
:101AB00003A90948FFF707FC08B1FEF7BDFC0020A9
:101AC0000190029001A90448FFF722FB08B1FEF73C
:101AD000B3FC07B000BD00001C00002010B50B488F
:101AE0000B4908604FF4E1304860002108488160EC
:101AF000C16001610C21416100218161C161FFF779
:101B0000DDFD08B1FEF798FC10BD00000038014073
:101B10006400002010B50B480B4908604FF4E13019
:101B20004860002108488160C16001610C21416169
:101B300000218161C161FFF7C1FD08B1FEF77CFCA6
:101B400010BD000000440040AC00002000BFFEE7D4
:101B500000BFFEE77047000008B508490968C908DA
:101B60004FF47A72B1FBF2F14143009100BF00BF24
:101B700000994A1E00920029F9D108BD0C000020EE
:101B8000704710B5FEF782FE10BD00B58FB028215A
:101B900005A8FEF7CEFA14216846FEF7CAFA01201E
:101BA0000590000406900020079001200990022073
:101BB0000C90C1030D914FF4E0110E9105A8FFF7B1
:101BC0005BF808B1FEF738FC0F200090022001906E
:101BD000002002904FF480600390002004900221C6
:101BE0006846FEF725FF08B1FEF726FC0FB000BDE2
:101BF0007047000010B502681C4B984208D0B0F145
:101C0000804F05D01A4B984202D01A4B984203D10C
:101C100022F070024B681A43144B984208D0B0F17E
:101C2000804F05D0124B984202D0124B984203D1FC
:101C300022F44072CB681A4322F080034C6943EAD5
:101C4000040202608B68C3620B688362074B984290
:101C500001D10B69036301234361036903F00103AD
:101C60001BB1036923F00103036110BD002C014087
:101C7000000400400008004030B50C46816821F4A3
:101C80007F4142EA032525432943816030BD0A464E
:101C9000816821F0700142F00703194381607047A9
:101CA00030B50B461446026A056A25F00105056247
:101CB000816921F0F00141EA041122F00A021A437D
:101CC0008161026230BD30B50B461446026A056A76
:101CD00025F010050562816921F4704141EA043163
:101CE00022F0A00242EA03128161026230BD70B5A7
:101CF00005466C6A0020E085E0842046FFF76AFB19
:101D000070BD00BF00BF02680C3252E8002F22F401
:101D1000907102680C3242E80013002BF3D100BF2F
:101D200000BF00BF0268143252E8002F22F0010108
:101D30000268143242E80013002BF3D100BF016B9C
:101D400001290ED100BF00BF02680C3252E8002FFB
:101D500022F0100102680C3242E80013002BF3D18C
:101D600000BF202180F8421000210163704710B5A8
:101D700004462068C06820F040002168C860202028
:101D800084F841002046FFF716FE002010BDF8B58C
:101D9000044694F84200222875D1A068B0F5805F0F
:101DA0000CD1206950B90025A66A20684068C0F3AC
:101DB00008003080A06A801CA06215E0A56A002699
:101DC000A068B0F5805F03D0A06828B9206918B971
:101DD00020684068287004E02068406800F07F00B8
:101DE0002870A06A401CA062E08D401E80B2E08591
:101DF000002846D12068C06820F020002168C86013
:101E00002068C06820F480702168C860206840693C
:101E100020F0010021684861202084F84200002061
:101E20006063206B012826D10020206300BF00BF23
:101E300021680C3151E8001F21F0100021680C319D
:101E400041E80002002AF3D100BF2068006800F0DA
:101E5000100010280AD100BF002000902068006800
:101E6000009020684068009000BF00BFA18D204610
:101E7000FFF7AFFA02E02046FFF73DFD0020F8BD76
:101E800001E00020FBE70220F9E7000070B50446FE
:101E90002168096921F44051E26811432268116107
:101EA0002269A1681143626941EA02052168C96893
:101EB00041F20C62914329432268D160216849694B
:101EC00021F44071A2691143226851612D4A2168B1
:101ED000914202D1FEF788FE01E0FEF775FE00EBAD
:101EE000C00101EB001162689200B1FBF2F100EB5E
:101EF000C00202EB001263689B00B2FBF3F26423A2
:101F0000B2FBF3F202EBC20303EB0212A1EB82017C
:101F1000322202EB01116422B1FBF2F101F0F00177
:101F200000EBC00202EB001263689B00B2FBF3F20D
:101F30006423B2FBF3F201EB021200EBC00101EBF0
:101F4000001163689B00B1FBF3F100EBC00303EBEE
:101F500000136668B600B3FBF6F36426B3FBF6F332
:101F600003EBC30606EB0313A1EB8301322303EB60
:101F700001116423B1FBF3F101F00F011144226858
:101F8000916070BD00380140014691F84100212860
:101F900028D18868B0F5805F0BD1086948B90A6A12
:101FA0001088C0F308000B685860086A801C08623B
:101FB00005E00B6A581C086218780B685860C88CDA
:101FC000401E80B2C88458B90868C06820F08000FC
:101FD0000B68D8600868C06840F040000B68D860A3
:101FE000002070470220FCE72DE9F84304460D4627
:101FF00017469846089E31E0701C70B3FEF740FC0F
:10200000A0EB0800B04200D816B90320BDE8F88361
:102010002068C06800F00400F8B1802D1ED0402D6B
:102020001CD020680068C0F3C000B0B100BF002021
:10203000009020680068009020684068009000BF11
:1020400000BF2046FFF75DFE0820606400BF00204F
:1020500084F8400000BF0120D8E7FFE7206800684F
:102060002840A84201D1012000E00020B842C3D09E
:102070000020CBE710B50248FFF7AEF910BD000015
:10208000AC00002000BFFEE70FB4054B10B503A95C
:10209000044A029800F034F810BC5DF814FB00000C
:1020A000712300081800002002480068C0F30220D5
:1020B000704700000CED00E010B5002804DB0A07B3
:1020C000130E054A135406E00A07140E034A00F0E3
:1020D0000F031B1FD45410BD00E400E018ED00E016
:1020E00002E008C8121F08C1002AFAD170477047E1
:1020F000002001E001C1121F002AFBD1704700003F
:102100002DE9FF4F8BB09A460F460546002606E0A4
:1021100025280BD052460D9990476D1C761C2878C7
:102120000028F5D10FB03046BDE8F08F0024A0465E
:102130000122604900E0044315F8013F203B02FA08
:1021400003F00842F7D128782E2817D115F8010F8F
:1021500044F004042A280ED06FF02F022878A0F152
:10216000300109290AD808EB880102EB410100EB94
:1021700001086D1CF2E757F8048B6D1C287869285C
:102180003ED006DC0028CDD063280BD0642804D1D3
:1021900036E0732810D075284BD052460D999047E1
:1021A000761C85E017F8040B8DF8000000208DF8F0
:1021B0000100E946012003E057F8049B4FF0FF308F
:1021C00061074FF0000401D40AE0641C44450DDAB5
:1021D0008442FADB19F804100029F6D106E0641CE9
:1021E0008442FCDB19F804100029F8D1264404E0ED
:1021F00019F8010B52460D999047641EF8D257E02A
:1022000001CF4FF00A0B002802DA40422D2102E0F4
:10221000210504D52B218DF82410012103E0E107CD
:1022200005D02021F7E70DF1200908910CE00021ED
:10223000F9E701CF4FF00A0BF9E75946FDF784FFA4
:1022400001F1300209F8012D0028F6D1ADEB0900AB
:1022500000F1200B600701D44FF00108D84502DDE2
:10226000A8EB0B0000E000208046002406E009A84F
:102270005246005D0D999047641C761C0898844274
:10228000F5DB04E0302052460D999047761CB8F1FA
:102290000001A8F10108F5DC05E019F8010B524630
:1022A0000D999047761CBBF10001ABF1010BF4DCFA
:1022B0006D1C34E7092801002DE9F041FEF7AEF866
:1022C0001CA0FFF7E1FE4FF0FF3304221BA11D48C5
:1022D000FFF712FB6420FEF771F840F6B8351A4F8D
:1022E000092617E06423012239461648FFF7A2FAAF
:1022F00004462CB97F1C701E86B240F6B83508E043
:10230000032C01D1643D04E0214610A0FFF7BCFE80
:1023100004E000BF002E01DD002DE3D100BF00204E
:10232000094948720EA0FFF7AFFEFEF777F8BDE847
:10233000F0810000312E2041540D0A0041540D0A55
:1023400000000000AC000020F40000205541525471
:1023500020E99499E8AFAF3A2025640D0A00000007
:102360007265636976653A2025730D0A00000000E6
:1023700013B50C464FF0FF33012269460248FFF7C0
:10238000BBFA00981CBD0000640000200EB5FEF7EB
:1023900089FAFFF7FAFBFFF711FBFFF79FFBFFF747
:1023A000B9FBFFF765FBFEF708F8FDF7F7FE0446FB
:1023B0001CB919A0FFF768FE02E01AA0FFF764FE3F
:1023C00029E0FFF779FF01A8FDF77EFF60B99DF8CE
:1023D000070000909DF806309DF805209DF8041038
:1023E00013A0FFF751FE02E01BA0FFF74DFE0220F5
:1023F000FDF7F1FF00224FF400511E48FEF73AFAB4
:102400000120FDF7E8FF012251031A48FEF732FAD6
:102410000120FDF7E0FFD4E74448543131206F6BD1
:10242000210000006468743131206661696C00002D
:10243000E6B9BFE5BAA63A2025642E2564202525F5
:1024400052482C20E6B8A9E5BAA63A2025642E25E4
:1024500064202A430D0A0000E8AFBBE58F9644488C
:10246000543131E695B0E68DAEE5A4B1E8B4A521CE
:102470000D0A0000001001400203040506070809C8
:102480000A0B0C0D0E0F10100102000000000000DE
:102490000000010203040607080900000000010211
:1024A00003040000C4240008000000201C000000F9
:1024B000E0200008E02400081C000020E4040000E4
:1024C000F0200008000000001000000001000000E3
:1024D00000127A0000000000000000000000000070
:04000005080000ED02
:00000001FF
